:020000041000EA
:1000000000B5324B212058609868022188439860DF
:10001000D860186158612E4B002199600221596106
:100020000121F02299502B49196001219960352056
:1000300000F044F80222904214D00621196600F024
:1000400034F8196E01211966002018661A6600F04E
:100050002CF8196E196E196E052000F02FF8012189
:100060000842F9D1002199601B49196000215960AB
:100070001A491B48016001219960EB211966A021F2
:10008000196600F012F800219960164914480160C1
:100090000121996001BC002800D000471248134993
:1000A000086003C880F30888084703B5996A0420EC
:1000B0000142FBD001200142F8D103BD02B5186610
:1000C0001866FFF7F2FF186E186E02BD00000240BE
:1000D000000000180000070000035F00212200005C
:1000E000F4000018222000A00001001008ED00E03C
:1000F00000000000000000000000000074B24E7A12
:1001000000200420F7010010CB010010CD010010E9
:10011000C9010010C9010010C9010010C901001077
:10012000C9010010C9010010C9010010CF01001061
:10013000C9010010C9010010D1010010D301001045
:10014000C1010010C1010010C1010010C101001067
:10015000C1010010C1010010C1010010C101001057
:10016000C1010010C1010010C1010010C101001047
:10017000C1010010C1010010C1010010C101001037
:10018000C1010010C1010010C1010010C101001027
:10019000C1010010C1010010C1010010C101001017
:1001A000C1010010C1010010C1010010C101001007
:1001B000C1010010C1010010C1010010C1010010F7
:1001C000EFF30580103800BE00BE00BE00BE00BECA
:1001D00000BE00BEF2EB8871F08D0010108E001092
:1001E0003802001090A31AE71E481F49086006C88D
:1001F00081F3088810471D480068002801D019487D
:10020000F3E70DA40ECC002902D000F012F8F9E7B4
:100210001749184A002000E001C19142FCD116495B
:100220008847164988471649884700BEFDE701C937
:1002300001C29A42FBD37047108E0010C00000200C
:10024000FC1700204CA50010000004200000042032
:100250004CA5001000100420001004200000000035
:10026000704700000000000008ED00E0000000D032
:10027000FC1700200067002061500010D102001020
:1002800059500010F8B5C04610B5064C2378002B25
:1002900007D1054B002B02D0044800E000BF01232A
:1002A000237010BD88190020000000005482001047
:1002B000044B10B5002B03D00349044800E000BFF5
:1002C00010BDC046000000008C19002054820010B0
:1002D00030B5C1B005F044F802E0642001F074F8D4
:1002E00005F0C4FB0028F8D0074D084C280005F0A5
:1002F00023F98021236849005A68684600F008F80D
:10030000684600F051F9F1E75882001058120020B9
:10031000F0B5C6460600002400B5134F4D1EAC4292
:1003200015DA05F021F80A2811D00D280FD0082879
:1003300013D07F2811D00300203B5E2BEFD8631C25
:1003400098463055444605F049F8AC42E9DB0023B5
:100350003000335504BC9046F0BD002CDFDD380082
:10036000013C05F0E9F8DAE76C820010F0B54E4682
:100370004546DE465746E0B5884683B0161E6AD02D
:10038000002954D08024020000230025E402A41890
:100390005D41002D63D18023DB029A46324B8244BB
:1003A0009A454ED93200002312196B411100002BDF
:1003B00047D180239B03994243D8B14653461C0B37
:1003C00024031D1B80235B015E1B4E4500D94E4656
:1003D000802380225B05E1185201244802F0FCFAD8
:1003E000224B32005819414602F0F6FAEFF3108B17
:1003F00072B680212000490107F0D2FE80235B0104
:10040000E7181A4B1D1B80222919200001345200C5
:10041000FF3407F0ADFEA742F5D18BF310884B46B1
:100420009B1BB0449946B244002BC7D102E0104850
:1004300005F01EF803B03CBC90469946A246AB4678
:10044000F0BDE0235B0300930200330009490A4832
:1004500005F072F8EEE7094805F00AF8EAE7054901
:10046000074805F069F8E5E7FFFF0300E84F0020C3
:10047000108300103483001064830010E0820010A9
:100480003C830010F0B50B0083B0002A23D0002974
:1004900023D08024060000270025E402A4197D4112
:1004A000002D24D18021154EC9024118B14209D92D
:1004B00016000027A4197D41002D03D18021890356
:1004C0008C420ED9E0235B0300930D491300020018
:1004D0000C4805F031F803B0F0BD0B4804F0C8FF3C
:1004E000F9E70A494118180002F076FAF3E702002A
:1004F0000349074805F020F8EDE7C046FFFF030079
:10050000D882001064830010B48200100000041030
:100510003C830010F0B58026040000250027F60279
:1005200036196F4183B00200002F23D18023DB02F4
:10053000C018184B98420AD8E0235B03009380232D
:1005400015495B01154804F0F7FF03B0F0BD8226A2
:100550000027F602A4197D41002DEDD180239B03D5
:100560009C42E9D803050AD080210D48490104F0D6
:10057000E3FFEAE708490B4804F0DEFFE5E7EFF3A5
:10058000108472B68021490107F00AFE84F31088B6
:10059000DBE7C046FFFF0300708200106483001099
:1005A000788200103C830010F0B5CE46474680B5F7
:1005B000954D83B0290007F099FC041E00D1CBE0D3
:1005C000924907F01DFC061E2AD09149200007F031
:1005D00017FC061E4CD020008E4907F011FC041EAB
:1005E0003ED12900002007F081FC051E00D1BBE0B0
:1005F0000A2201A9019407F053FD019B04009D42CA
:1006000065D01B78002B62D1002860DBC022FF324E
:10061000904200DCB5E001007F4804F08DFF22E04D
:100620002900002007F062FC041E4CD00A2201A918
:10063000019607F035FD019B05009C4200D18FE03B
:100640001B78002B00D08BE0002800DA88E0C02265
:10065000FF32904243DD29006F4804F06DFF02E055
:100660006E4804F005FF03B00CBC90469946F0BDFF
:100670002900002007F03AFC041E79D00A2201A9C3
:10068000019607F00DFD019B05009C4223D01B78CD
:10069000002B20D100281EDBC022FF329042DADC82
:1006A00080225F4C520100032100FFF7EBFE5D4BFF
:1006B00022689A4202D16368012B7AD029005A48F5
:1006C00004F03AFFCFE7594804F0D2FECBE7584890
:1006D00004F0CEFEC7E7574804F0CAFEC3E7564908
:1006E000002007F003FC041E53D007F0CDFBFF22CF
:1006F0000700120190423FD88022504E2B03520136
:10070000180031009846FFF7BDFE0122454B914687
:1007100032689A4241D08022494E5201FF21300076
:1007200002F054F93F4B30003360012373604B46B5
:100730003A0021001030B360F76002F04DF98022DA
:10074000310040465201FFF711FEF368B2682900FC
:100750003C4804F0F1FE86E73B4804F089FE82E75E
:100760003A4804F085FE7EE7394804F081FE7AE7D6
:10077000384804F07DFE76E70100374804F0DCFEDF
:1007800071E70003FFF7C6FE2100344804F0D4FEF1
:1007900069E7334804F06CFE65E77368012BBAD152
:1007A000FF23F2681B019A42B5D8B368013399461A
:1007B000B1E7FF23E2681B019A4200D97EE7A168F6
:1007C000284804F0B9FE284804F0B6FEE368002586
:1007D000002B0DD0254E6319197C0B00203B5E2B9E
:1007E0000AD8080004F0FAFDE36801359D42F2D30F
:1007F0000A2004F0F3FD36E7300004F09DFEE368C4
:100800000135AB42E7D8F3E7B0850010188400103B
:100810007085001040860010248400106C86001043
:100820008C2F002048534C46B4850010B88300102C
:100830001886001048850010688400108C1F002066
:100840008C3F0020E0840010A4830010F08300108F
:10085000EC8500101C850010948400104C8600105C
:100860006C8400107C850010A8850010E4850010C1
:100870008023DB051868000F7047C0460FB400B531
:10088000084883B004F0F4FD049B002B07D005A9B1
:100890001800019104F0C6FB034804F0E9FD0120B3
:1008A00004F0D8FB80860010E0850010F8B5EFF367
:1008B000108772B60D4E3368002BFCD0BFF35F8FEC
:1008C0000725CB08C01801230D40AB401D0004785C
:1008D000254007D123430370BFF35F8F356087F353
:1008E0001088F8BD1000FFF7C9FFC0462C0100D0EA
:1008F000F8B5CE4647468C4680B5EFF3108972B600
:10090000214D2C68002CFCD0BFF35F8F9A422CD86D
:100910000721012511408D40D4080419267835425D
:100920001FD007218846063909E045460F001540CB
:10093000AF40D408041926783D00374211D0013267
:100940009342F2D201204042BFF35F8F00220E4B50
:100950001A6089F3108800280FDB0CBC904699467A
:10096000F8BD354325701000EEE7BFF35F8F00231D
:100970002B6089F31088012040426346002BECD0A5
:100980000898FFF77BFFC0462C0100D0044A10787E
:10099000431CDBB2172B00D9102313707047C046DD
:1009A0009811002000B5054B83B001000093182278
:1009B0001F230348FFF79CFF03B000BD9086001083
:1009C000841F00200021044B044ABFF35F8F02C341
:1009D0009342FAD17047C046000100D0800100D098
:1009E000054B064A1360064A136053609360D36058
:1009F00013615361936170478080808000E400E060
:100A000004E400E01F2318401E3B8340002903D16B
:100A1000802204498B507047C021024A490053503C
:100A20001360F8E700E100E0020001209040034B72
:100A30001B681840431E9841C0B2704700E100E0B7
:100A400001238340014A13607047C04600E200E082
:100A5000064B10309B688000C358054A00209B1A43
:100A60002F229A424041C0B27047C04600ED00E0DC
:100A70009C11002070B50D00EFF3108672B60F4A7E
:100A80001368002BFCD0BFF35F8F0D4B10309B68B9
:100A900084001B590B4A934203D09D4201D001F0C0
:100AA0000DF8074B9B681D51BFF35F8FBFF35F8F3E
:100AB0000022024B1A6086F3108870BD240100D01A
:100AC00000ED00E0C1010010F0B557464E46454626
:100AD000DE46E0B5894683B007009046EFF3108A02
:100AE00072B65F4A1368002BFCD0BFF35F8F002003
:100AF0005C4B18569B46002800DA82E05A464400B8
:100B0000594E2418A4003519AB7910371370574B80
:100B1000BA009B6893469A58931B2F2B2ED9544B9F
:100B20009A4201D000F0CAFF524B02342B80524B44
:100B30003619043B9E1B3605504B760D1E43504B19
:100B40000122AB80FF23AB714346EB714B466E80B5
:100B5000AB602A435946454B9B685A50BFF35F8FA1
:100B6000BFF35F8F00223E4B1A608AF3108803B0F8
:100B70003CBC90469946A246AB46F0BD012311000D
:100B80009943CB798C46434541D90627CF57002F4F
:100B900005DA22E00627DF571900002F1DDB7B0056
:100BA000DB199B00F318DF794745F3D800292ED0D5
:100BB0000627CF570B1D0193002F4EDB8B88043483
:100BC0005B0534191B150E1DF618361BE02436057F
:100BD000760D24022643019B02E00B1D294E019352
:100BE0002C1FE31A1B05254C5B0D23438B80264BE2
:100BF00088712B604346EB714B46AE80AF71AB60A2
:100C0000A8E700F05BFF5B460020185676E71F4A16
:100C100063469B1B5B415A43120D164BA11C2B8054
:100C2000154B7118043B5B1A1B0514495B0D0B43F4
:100C30006B8063460434043B36199E1B4346EB71BC
:100C40004B46AA7162463605AB60760D0E4B3143BA
:100C5000A980136001222A437CE70A4EC0E7C04600
:100C6000240100D0396400209C11002000ED00E038
:100C7000C101001000A1FFFFCC11002000E0FFFF28
:100C800001BDFFFF01BD000001488047AAAA000086
:100C9000F0B501240443EFF30581EFF3108672B63B
:100CA000214A1368002BFCD0BFF35F8F1F4B204AF3
:100CB0000500ED1A6D416A43120D1E4D8900AF68A3
:100CC00052B27F58A7421CD006215956914226D0D5
:100CD00012215956914224D01E215956914214D0C6
:100CE0002A2159560324914210D0134B19781A70B7
:100CF0008171BFF35F8F00220B4B1A6086F310885F
:100D0000F0BDAB680D4C5C50EFE70224610009199F
:100D100089005B18FF21997109499980E5E7002452
:100D2000F4E70124F2E7C046240100D09C11002022
:100D3000AAAA000000ED00E039640020C101001003
:100D400001BDFFFF00B5074B83B0010000930022F7
:100D500005230548FFF7CCFD002801DB1F23181AE7
:100D600003B000BDAC8600103D640020024B9C46E1
:100D7000614489000160704740000034F0B5C64608
:100D8000164D174F00B5BD4224D2FF232C009846C4
:100D90000DE0FFF7FBFD01002800FFF7E7FF4346EA
:100DA000A380BFF35F8F34003500BE4212D226000D
:100DB00023680836002BECD1FFF7E8FD010028007E
:100DC000FFF7D4FF43462371BFF35F8F3400350034
:100DD000BE42ECD304BC9046F0BDC046F4170020E0
:100DE000FC17002010B50400FFF7D0FD0100200023
:100DF000FFF7BCFFFF232371BFF35F8F10BDC04619
:100E000010B504000120FFF7CDFD044B9C46604463
:100E100080002060BFF35F8F10BDC04640000034EB
:100E2000034B9C46614489000160BFF35F8F7047AC
:100E3000400000340A4B1968EFF3108072B60A685C
:100E4000002AFCD0BFF35F8F1B68BFF35F8F0022C7
:100E50001A6080F3108840BF002000217047C04610
:100E600018640020F0B5DE4657464E464546E0B5CC
:100E700085B0EFF30582032113000B409A001100A7
:100E80000392B84A5258904601229A409246B64B75
:100E90001A605346B5484363434608229B5E994611
:100EA000002B00DB98E043469B881BB2002B58DBED
:100EB00043461A69EFF3108172B61368002BFCD019
:100EC000BFF35F8F43469B8842461BB29C4601237B
:100ED0005B4293801369BFF35F8F00221A6081F336
:100EE00010886346002B3CDB43465F69082343447C
:100EF000994663465E006644F600B346BB445B46D3
:100F00009868D968434608229A5E00900191002AA9
:100F100000DAC7E053009B18DB00FB189C68DD6813
:100F2000001BA94100290CDABCE053009B18DB0030
:100F3000FB18009801999C68DD68001BA9410029F5
:100F400004DB1E000023F25E002AEEDA63463380E3
:100F50005B4600215B5E9C465B461A806346002B25
:100F6000C7DA43469B79002B00D09DE0434608201A
:100F7000185E002826DB42465269430094461B183F
:100F8000DB0063449C68DD68631C00D1BCE07748EB
:100F9000039B84466344826A19001B69A61A9B1A44
:100FA0009E4217D35246036A1A4213D06F4800F08C
:100FB00041FB241A8D41002D04DC00D069E7002C90
:100FC00000D166E740BF05B03CBC90469946A246BA
:100FD000AB46F0BD0C61E9E7424652695B009346BF
:100FE0004B44DB009B445B469E68DF6800F022FBBD
:100FF000801BB941002900DA55E7002F00DA87E0AD
:101000005A465B4654691B69594A934200D19BE09A
:1010100041465A460820085E5288000421001043C9
:10102000984704000D0023002B4371D0002D00DBF6
:1010300092E0361BAF4134003D005B469C60DD60B2
:101040000021595E002900DA2DE743465B69220042
:101050009C462B0048004018C00060448668C76862
:10106000921BBB41002B00DA1DE7434666461981FF
:101070000200009401950CE07B00DB19DB00F31803
:10108000009801999C68DD68001BA941002904DBD8
:101090001A000023D75E002FEEDA5B461F804B4616
:1010A000138000E74E4651E70023424693714346C2
:1010B000464608229A5E0836531C00D182E7434612
:1010C00047465D69944603E01E002200631C18D069
:1010D00053009B18DB00EB1800215C5E598809B2B5
:1010E0000029F1DA01204042C1179860D960944587
:1010F000EBD034803989944619803A812200631CF0
:10110000E6D1B846604634E76B1C00D03FE74DE7B8
:101110005B4642461B8813811269EFF3108172B659
:101120001368002BFCD0BFF35F8F43465A465B88A1
:10113000138043464A465A801B69BFF35F8F0022E3
:101140001A6081F31088AEE62000236998470028D2
:10115000DED06568246866E7044800F06BFA24185E
:101160004D416AE7FC6300203C70054000400540AB
:10117000650E001070B52E4C2569002D04D00A2193
:101180002C48FFF7F3FD70BD2B4E0321300000F01B
:1011900047FAE660FFF7FAFB284B03219C46102331
:1011A0006381D02321701B061B68012263700F230B
:1011B0006044800020610220638063695242228182
:1011C000A2801A8002321A8647321D839852183242
:1011D000995218320131995218320131995218320C
:1011E00001319952183201319952083518329D5205
:1011F00002311832995218320131995218320131A4
:1012000099521832013199521832013199521832DB
:10121000013199520A4B0B49DC6001303562FFF70E
:1012200029FC01210320FFF7EDFB074B1D60A6E71A
:10123000E411002018640020004005404000003404
:10124000FC630020650E00103860054000487047C0
:10125000E4110020F8B51F0008AB1B78040016004D
:10126000002B07D100F0F0F932003B00121A8B413D
:10127000002B4BDB2269EFF3108072B61368002B52
:10128000FCD0BFF35F8F0223E15E63694A009C4696
:101290005218D2006244002901DB1388638023695D
:1012A000BFF35F8F00251D6080F3108800292FDBBE
:1012B000069B9660D7601361079B53615388013387
:1012C0005B045B0C181E1ED053800B041843256969
:1012D000EFF3108672B62B68002BFCD0BFF35F8F44
:1012E000A3881380A1802369BFF35F8F00221A6057
:1012F00086F310880849237801328C469A40E368C7
:1013000063441A60F8BD01200123DDE70020F9E7FE
:1013100001204042F6E7C0463C200000F0B5010045
:101320000469EFF3108672B620680028FCD0BFF382
:101330005F8F02200D5E48696C0084466419E400EA
:101340006444002D01DB208848800869BFF35F8F6B
:101350000027076086F31088002D2DDBA260E36074
:1013600063880598013320615B0406985B0C60611B
:101370001A1E1ED02804104363800A69EFF31086FA
:1013800072B61368002BFCD0BFF35F8F8B8823806D
:101390008D800B69BFF35F8F00221A6086F310887F
:1013A0000B7801329A40CB6805498C4663441A6039
:1013B000F0BD01220123DDE701204042F8E7C046ED
:1013C0003C20000040787047F0B5C64600B582B0BA
:1013D000060000F039F9FA2204000D009200002303
:1013E0003000002101F086FA24184D41002D4EDB1B
:1013F00006267642F71736196F41AF424ED90026BE
:10140000002700F021F932003B00121A8B41002B1B
:1014100038DD00F019F932003B00121A8B41002B25
:1014200012DB00230193204B320000931F483B0046
:10143000FFF774FF002807DA2000290000F040F9C8
:1014400002B004BC9046F0BDB0460026BC46184A27
:10145000184F7B6A9C4504D8B96A8845ECD99C45ED
:10146000EAD11168EFF3108072B60B68002BFCD044
:10147000BFF35F8F1368BFF35F8F1E6080F3108828
:1014800020BFE6E7002BD7D1002AC2D1D4E7012440
:1014900007266442084D7642074FB2E7AF42B0D10B
:1014A000A642ACD8ADE7C046350E0010E4110020CE
:1014B0001864002000400540FFFFFF7FF0B5D646CE
:1014C0004F464646C0B5040082B00D00EFF30586D6
:1014D0008846002E12D04E4A0020536A8B4207D312
:1014E000926A0130A24203D25B1B581E8341D8B2DC
:1014F00002B01CBC90469946A246F0BD454B9946A9
:10150000DB689A464B4650461F7800F093F85346E6
:101510000437BF00FB5822001F1A2B00121A8B4100
:101520009E4209DC06D020BF394A0020536A434559
:10153000DED3D5E79742F6D900F086F822002B00DB
:10154000121A8B41002B3FDB00230193324B220008
:10155000009348462B00FFF7E1FE002834DD2C4BBA
:101560005A6A42452AD220BF4B465B8902149A42EE
:101570001DDA53009B184A465269DB0094464A46DE
:1015800063441669EFF3108172B63268002AFCD00A
:10159000BFF35F8F5A8880B292B2904220D04B4600
:1015A0001B69BFF35F8F00221A6081F31088184A0D
:1015B0000020536A434500D29AE791E79B6AA34211
:1015C000D2D24245D0D1CEE7114A0020536A4345DA
:1015D00000D28DE7926A0120A24200D284E787E719
:1015E0008020000202435A8001234A469371126907
:1015F000BFF35F8F0020106081F310884A46127895
:10160000064993404A468C46D26862441360CEE74E
:1016100000400540E4110020350E00103C20000081
:1016200010B5024A0248FFF741F910BDD0860010FC
:10163000881F00200200416A00E01900906A536A86
:101640009942FAD17047C046044A516A00E0190035
:10165000906A536A8B42FAD17047C04600400540F9
:10166000164A70B5546A00E01C00956A536AA3429A
:10167000FAD12A0023008018594105000E008C423F
:1016800016D813D032000D4C636A9342FCD39A42B1
:101690000BD10A4B2800996AA94203D305E0996A45
:1016A000814202D2596A9142F9D070BD8242E9D991
:1016B000012201256D42EE175242E4E70040054049
:1016C000064A536A9942FCD807D1044B02E05A6A91
:1016D000914202D19A6A9042F9D870470040054081
:1016E000F8B54E464546DE465746E0B58846050005
:1016F0000A991800170000F0FDFA0A9B6C001E0200
:10170000314B64199C46A4006444636881469E4240
:1017100000D966602B1FDBB29A46C02352469B015C
:10172000E318012A2DD9802212011A60274BAD003F
:1017300059599B4600291BD123687F017B40E02734
:101740001F40802352465B01E3181F60012A2DD9F8
:10175000802380229B01E31812011A605B464A46EF
:1017600066605A513CBC90469946A246AB46F8BDCD
:10177000586900F0BFFA431C5800C0180338FDD266
:10178000DAE74246012ACED102321A60023AA36851
:101790001A42FCD023687F015F40E0231F40802372
:1017A0000A4A5B019346E3181F60AD004246216878
:1017B000514003220A401A60012243469A40A3681E
:1017C0001A42FCD0C4E7C046008000408C4F002085
:1017D000F0B54F464646D646C0B51E00344B4400D1
:1017E0009C462418A400644463680F001500FF2B76
:1017F00002D880235B006360031FDBB29A46C023DC
:1018000052469B01E318012A31D9802212011A6045
:10181000284B9946830098464B46424699580029E2
:101820001CD123686D016B40E0251D40802352468A
:101830005B01E3181D60012A2ED9802380229B01C1
:10184000E31812011A6080235B00424663604B4636
:101850009E501CBC90469946A246F0BD586900F0C7
:1018600049FA431C5800C0180338FDD2D9E7012FAC
:10187000CBD103221A60023AA3681A42FCD0236833
:101880006D015D40E0230B4A1D408023914682009C
:1018900090465B01E3181D600322216879400A40ED
:1018A0001A600122BA40A3681A42FCD0C5E7C046BC
:1018B000008000408C4F0020014B8000C0587047D2
:1018C0008C4F0020F8B50400204817001E000D00C2
:1018D00000F010FA0100380000F00CFA069A330408
:1018E000120313432268002A1FDB194A194EA2185B
:1018F000511E8A41802189018C46524216491203A9
:1019000062440A6015490A60170031688F43FBD1B1
:10191000134A2560A1182122A0600A602268002ACB
:10192000FCDAE36008230B60F8BD3F2221680A401F
:10193000AA42DAD1A2681205120D8242D5D1EE2157
:10194000E268C9020A409A42CFD1EDE7001BB70016
:101950000040FDBF08C0004000E0004000F0004033
:101960000430000010B580241B4BE4051C600028E7
:101970001AD00123194C1843194BDC61194C44400F
:101980001C62596298628021134BC9051960164880
:1019900016490860E021C9041960002A07D1802295
:1019A000134B12061A6010BD0D4BD861EBE75301C3
:1019B0009B1A9B009A180F4B12019A4208D80E4BA3
:1019C0001A60074B5A608022094BD2051A60EAE779
:1019D000094A13601A00F4E700B00540D3C007B00D
:1019E000008005402D3FF84FFCFF0100082001401A
:1019F00000A00540FFFFFF00EC63002080239B0058
:101A00001943014BD962704700800540142310B57B
:101A10000100188804331B88984710BD162310B5A1
:101A20000100188802331B88984710BDF0B5C646E0
:101A300000B5002916D01423040001259846182764
:101A4000890046184346216818883B88984701C496
:101A5000431E984140420540A642F3D1280004BCF1
:101A60009046F0BD0125F9E7142370B504001888ED
:101A700004331B880D00054998470300002C03DB45
:101A80000120A040290098470020FBE755420000B4
:101A9000AA23064A1B0113608D235B00D36004490F
:101AA000044B19605368002BFCDA70470040024079
:101AB00000B0FA00006002407047C04610B501480F
:101AC000FEF7DCFEF486001070B5074C074DAC4203
:101AD00009D20322231D0335ED1A9543ED1808CCD6
:101AE0009847AC42FBD170BD108200104C820010B0
:101AF000054B064A06491A60064A074B1A60100051
:101B00000B689843FBD1704700E00040BFCDFBFE5F
:101B100008C00040FE7F3C0000F00040044BDB6C3E
:101B2000002B03D18022034BD2021A607047C046BB
:101B3000000011504C201150044A054B1A60054A10
:101B40001368DB018033FBD17047C046FFFFFF0104
:101B500000F0004008C000404022034B9A675A67DB
:101B60001A67DA667047C04600F0014010B5FEF70C
:101B700029FF10BD70B50C490C4C0D4D641AA61010
:101B80003200302E00D930229200280000F024FFCD
:101B90002F2E06D82A0007492C19C03202C49442BD
:101BA000FCD1054B9D6070BD00010010C00100100C
:101BB00000000020C101001000ED00E0002310B57E
:101BC000294C82B0A367FFF763FF0122274B1A60FD
:101BD000636C012BFCD10322254B1A60224A936BC4
:101BE000012BFCD101330093224A04330121224806
:101BF000FFF768FE0523214A009301212048FFF7E3
:101C000061FE204B002202210420FFF7E1FD1E4B64
:101C1000002201210520FFF7DBFD1C4B00220021E3
:101C20000720FFF7D5FD194B002200210820FFF700
:101C3000CFFD8023DB0000930022144B00210920FC
:101C4000FFF74EFD104B002200210620FFF7C0FDDC
:101C50000420FFF731FE0E4900F04CF8010000208F
:101C6000FFF7CCFE02B010BD008000403CB0004049
:101C700030B00040002F685900800240008C864739
:101C800000C00240001BB70040597307006CDC0223
:101C900040420F0001480421014B18470012002068
:101CA0002D1A0010124A936F9B0815D29066D166C8
:101CB000002905D0FFE7FFE7FFE7516F106F70477E
:101CC00004B580210906C2175140002800D0C8433E
:101CD00006F056FA002104BDF0B5146E556E576F2C
:101CE000166FFFF7E3FF1466556657671667F0BD7A
:101CF000000000D0114A936F9B0813D21066516602
:101D0000002905D0FFE7FFE7FFE7516F106F70472D
:101D100004B5002801D00020C04306F031FA0021AC
:101D200004BDC046F0B5146E556E576F166FFFF7C1
:101D3000E5FF1466556657671667F0BD000000D0D2
:101D400094464A4A926F9208624601D228E0C04601
:101D5000F0B5464E346E756E776F366F00F020F832
:101D60009446424A14665566576716676246F0BD48
:101D700094463E4A926F9208624601D254E0C046B1
:101D8000F0B53A4E346E756E776F366F00F04CF8E2
:101D90009446364A14665566576716676246F0BD24
:101DA000002B24DB11D000293EDA00B5C9434042A4
:101DB00000D1013100F038F8C943404200D101316F
:101DC000DB43524200D1013300BD002AEBD1002891
:101DD00001D1002905D00020C90FC90701D1C04396
:101DE000410800B506F0B4F90022002300BD00B59B
:101DF00000290ADBDB43524200D1013300F014F822
:101E0000C943404200D1013100BDC943404200D125
:101E10000131DB43524200D1013300F005F8DB43CE
:101E2000524200D1013300BD002923D1002B18D12B
:101E3000002A0CD0BC460D4F38667A66002100237C
:101E4000FFE7FFE7FFE77A6F386F674670470028C4
:101E500001D00748010000B506F07AF900220023FE
:101E600000BD02000B00002000217047000000D0E0
:101E7000FFFFFFFF002B00D0BFE0130C28D1002A8A
:101E8000E7D080B4114F39667A66FFE7FFE730B4D8
:101E9000040C7B6F396F1B0423433B667A66FFE7B4
:101EA000FFE7FFE7C04684B27B6F3D6F1B0423430F
:101EB0003B667A66FFE7FFE7C04600232C042D0C43
:101EC0007A6F386F00196941B0BC7047000000D0CC
:101ED000F0B594460025140E01D112020835140FF6
:101EE00001D112010435940F01D192000235D40FB3
:101EF00001D152000135D40B0134254F7C66254CAD
:101F00003C660E0C93B2FFE7FFE7FFE73C6F6643CA
:101F1000360C7703BE467343DF0B5B04C01AB9412E
:101F2000130C7343DB18C91ACE086643360CB6444B
:101F300093B273431F0F1B01C01AB941130C7343B3
:101F40001F0B1B05C01AB941860D8F023E43664325
:101F5000360C092D24DB520A7243801A7703460A95
:101F60006643360C16235B1BDE40DF40BF19644618
:101F70006643821B7046043506330100D940A840F1
:101F8000C01900D30131A24206D20023F0BD0000E7
:101F9000000000D0FFFFFFFF121B0130F3D3F1E779
:101FA00009277F1BFE406446A2B27243801A00D20A
:101FB0000139220C7243130C1204821A99410B004E
:101FC0007046043513370100F940A840801900D34A
:101FD0000131002B02D1A2420AD2F0BD013000D360
:101FE0000131121BFAD2013BF8D1A24200D2F0BD5E
:101FF000013000D30131121BF7E7F0B51C0C00D003
:1020000080E00CB400251C0A04D11B02160E3343D9
:10201000120208351C0B04D11B01160F33431201A9
:1020200004359C0B04D19B00960F3343920002357C
:10203000DC0B02D192185B4101351C0097186441FA
:102040000134464F7C66464C3C660E0CFFE7FFE7CA
:10205000FFE7C0463C6F6643360C7703BE4697B237
:102060007743C01B00D20139C01B00D201399FB297
:102070007743C91BC91B170C77437E04FF0B801BDA
:10208000B941CE086643360C0C2D33DBB644120B37
:102090001F053A431B0B97B27743C01B00D201398F
:1020A0009FB27743C91B170C77433E043F0C801B3C
:1020B000B941860D8F023E43664329277F1BFE40B0
:1020C0000C3D7746AF40BF1930BCA2B2ABB27243F1
:1020D0007343801A9941220C7243130C1204801A24
:1020E000994102000B000137001BA941F9D2781E6B
:1020F0000021F0BD0C277F1BFE4077467F0BAF40D1
:10210000FF19E0E700245D1C07D0144F7D66396697
:10211000FFE7FFE7FFE7FFE73C6F95B29EB265433D
:102120006643401BB141150C1E0C654366433604E3
:102130002F0C3E432D04401BB141994204D20200B2
:102140000B0020000021F0BD01D19042F7D3801A8E
:10215000994101349942F2D3F6E70000000000D023
:10216000FFFFFFFF48404140484018B41B4B5B68ED
:10217000FC46019308BD04DFC723001018B4174BB9
:102180001B68FC46019308BD00DFD1230010944674
:10219000134A926F920809D2624618B40F4BDB685B
:1021A000FC46019308BD0CDF892600100C4AF0B5EF
:1021B000146E556E576F166F6246FFF7EEFF084AB2
:1021C0001466556657671667F0BD18B4034B9B68D5
:1021D000FC46019308BD08DF2D2500104064002057
:1021E000000000D0FFB550404240504059404B40A5
:1021F000594000E0FFB5154F4C00640D03D0BC42C0
:1022000004D10C0314D80020090D09055C00640DED
:1022100003D0BC4204D11C030AD800221B0D1B05AD
:1022200001264B4009D44B4003D58B4200D182425A
:10223000FFBD9942FCD19042FFBD0B43DB18034325
:102240001343F5D0C9434918FFBD0000FF07000044
:1022500000B5FFF7CFFF804100BDC04600B5FFF7D6
:10226000C1FF01D9002000BD012000BD00B5FFF76E
:10227000B9FF804100BD012040054A00121804D872
:102280005A00121801D80020704701207047000042
:102290000021002805D17047C1174840401AFAD0E4
:1022A000C90713B5064B1B6898470CBC441CA240D9
:1022B0001005120B0349091B09051943114310BDF1
:1022C000146400201F04000010B54C00620D802330
:1022D000D218DB00D21A5B057E2A10DD9E3A13DA93
:1022E000CC170903490819435242D1406400013414
:1022F0001532202A05DAD0400843604310BD002083
:1023000010BD0846604310BDC80FC018013810BD8D
:1023100018B4044B5B6AFC46019308BD24DF3928DE
:102320000010000040640020132370B51C78012CBD
:1023300015D01EDD1148FFF771FB06001048FFF7AE
:102340006DFB104D80223100280000F045FB022C6F
:1023500010D00D48FFF75AFB0C4B186070BD094DAB
:102360000B4A29002B00803104C38B42FCD1AA64A4
:10237000EFE7044D064AAA64EBE7C0465344000069
:1023800053460000406400204C33000014640020D9
:102390009523001007B5604601880A0A0230DF2A3B
:1023A000FAD1C9B2820804D30288408800041043DD
:1023B00000E00068014A5050039007BD40640020CF
:1023C0000FB403BC0CBCF0B50124E407634000E08B
:1023D000F0B50C0DCF0F661E3605891B640503D3BF
:1023E000C943404200D30131640D03D0661CF60A94
:1023F00007D0E41B00207F00791C89078912803CEC
:1024000024031D0DDF0F6E1E36059B1B6D0503D3C8
:10241000DB43524200D301336D0D03D06E1CF60A2C
:1024200007D0ED1B00227F007B1C9B079B12803D89
:102430002D032F1B661B58D4A446202E46DA2037C6
:102440001400BC401D00BD40F24033412A438018B7
:102450005941CB0F05D0C943C043002264425041CB
:10246000514162464D0D28D10D0D07D100281FD0D6
:10247000241940414941013A0D0DF9D0640006D3B9
:10248000013000D30131002C01D140084000013A55
:102490000BD4941CE40A04D112051144DB0719443F
:1024A000F0BDD907204B194300E0D9070020F0BD4B
:1024B0000029DDD1002CDBD1F0BD0132C607400878
:1024C000CD0728434908002EE1D0D9E73C2E29DA70
:1024D000203E40371400BC4000D00124F240144399
:1024E0001A00BB401C43D317ACE7AC46202F08DAD8
:1024F00020360400B4400D00B540F840394128436F
:10250000A5E73C2F0CDA203F40360400B44000D051
:102510000124F84004430800B1400C43C117EAE726
:1025200010001900002494E70000F07FF0B50C0DB6
:10253000661E3605891BE60A6405640D02D0651C1B
:10254000ED0A04D0002001210905803C2403A446A3
:102550001C0D671E3F05DB1BE70A6405640D02D0F6
:10256000651CED0A04D0002201231B05803C2403D6
:102570007740644497B484B296B27443070C7E43A8
:10258000150C6F4380B26843361802D30120000453
:102590003F183004350C00197D41844688B29AB248
:1025A00050430C0C62431F0C7C438EB27E43921945
:1025B00002D301263604A4191604170C36186741F5
:1025C00001BC81B29AB25143040C62431B0C5C43C0
:1025D00080B25843121802D30120000424181004BA
:1025E000130C401863412D185E410020474106BC82
:1025F00088B293B258430C0C6343120C544389B213
:1026000051435B1802D301210904641819041A0C00
:10261000091862416D1856410020474118BCF90263
:10262000720D1143F0026A0D1043ED020A0D03D141
:102630006D1940414941013B124E9B1B7600B3424C
:102640000ED26D0007D30130002671416646354336
:1026500001D1400840001B05C918E4072144F0BD22
:102660000BDA013306D1013004D101314F0D01D015
:102670004908F2E7E1070020F0BD013631050020EE
:10268000EBE70000FF030000F0B51C0D671E3F05DF
:10269000DB1BE70A6405640D02D0661CF60A04D051
:1026A000002201231B05803C2403D0252D06002693
:1026B000F6432E661E096E66CE0FF619B446490023
:1026C0004F0D02D07E1CF60A03D000200021403FAF
:1026D0003F033E1BB600B444013F7F05C91B4908B8
:1026E0002E6F013676089C02950D25437543ED1338
:1026F0007543AD1301356D10F603761B0CB4CC0297
:10270000450D2C43A2B2B3B25A43270C7B43350C80
:102710006F43A4B26C431B1902D3012424043F1954
:102720001C041D0CA4187D4124196D41009A91B21E
:10273000ACB26143170C7C432B0C5F4392B25A43FB
:10274000A41802D301221204BF182204230C521829
:102750007B41019C6C431B19520ED9010A43440171
:10276000A01A81B2B2B2514303145A43360C7343D8
:1027700087B27743D617D21900277E4136049B19BA
:102780001704160C7F185E417316ED18F30100262E
:1027900080337541A90F06D16400690AE8055B0A18
:1027A000184309D22FE00422944480337541A90ACA
:1027B000A8059B0A184326D3404149412404009AA6
:1027C000019B0D005543641B4343E41A95B286B246
:1027D0007543170C7E43030C5F4392B25A43B618FD
:1027E00002D301221204BF183204330C52197B4168
:1027F00052429C41002C02D4002201305141400839
:10280000CA071043490802B06246D7079210084B26
:10281000D218084B9A4203D212058918C919F0BD83
:102820000020002A01DC3900F0BD01331905F5E76D
:10283000FD030000FE070000002200B5203200F07A
:1028400004F8080000BD000000220B150AD410B5E2
:10285000944600F031F81414013400DA0021CB174B
:10286000144C20470020002170476244343A0CD4B5
:102870000C2A07DA04009140904052422032D440A2
:10288000214310BDD843D94310BD203207D40C4694
:102890009440524220321141D040204310BD0800E4
:1028A000C917203203D452422032104110BD180003
:1028B000190010BD6B2800100A0DCC0F531E1B050C
:1028C000C91A520503D3C943404200D30131520D06
:1028D00003D0531CDB0A07D0121B00206400611CCC
:1028E00089078912803A1203014BD21A70470000FF
:1028F000FF03000051434343C9188C46110C83B2B7
:102900004B4310B4040C614392B280B25043624313
:102910001C041B0C001910BC59411304120CC018E4
:102920005141614470470000132310B51C781348CF
:10293000FFF774F8012C0BD004DD01008022104851
:1029400000F04AF80F48FFF761F80F4B186010BD10
:102950000B4C01005422200000F03EF80B4B636545
:10296000A365E36523666366A366E366236763671F
:10297000A367E3672362E361E4E7C04653460000D0
:10298000406500204C3300001464002091290010A1
:1029900007B5604601880A0A0230DF2AFAD1C9B2B7
:1029A000820804D3028840880004104300E00068D5
:1029B000014A5050039007BD4065002001480421A2
:1029C000014B1847101200202D1A0010014B1B68F4
:1029D0001847000010120020014B5B6818470000E8
:1029E000101200207047C04610B5002803D04A6876
:1029F0000B681100984710BD10B5002801D002F0F7
:102A0000EDFC10BDF0B557464546DE464E46E0B5F6
:102A100085B0984610AB1D78139B93469A460223C7
:102A2000149A0F00134006000F9C12990193002B7B
:102A30002DD1013313409C465346002B66D18C4266
:102A40000DD21F2C00D912E10E9B30201B1902E081
:102A50000133202C03D001341870A142F8D863460A
:102A6000002B14D0A24512D90E9B30201B191F2C0D
:102A700021D8AC461500524602E00133202C17D075
:102A8000013418709442F8D192462A006546D30664
:102A90002ED5530519D4002C11D1119B102B00D128
:102AA000D9E0022B1FD10E9960330B7001241AE07C
:102AB00092462A006546D3063ED5530505D4A14269
:102AC00000D19FE0544500D19CE0119B102B65D0B4
:102AD000022B06D11F2C65D862210E9B1B19197081
:102AE00001341F2C5ED830210E9B1B191970013444
:102AF0001F2C57D8002D1BD1530700D570E01307AA
:102B000050D520230E990B55013415E06346002B58
:102B10006BD0002D00D070E00C2313426DD18C429D
:102B2000A0D21F2C90D953462024202BC3D8AEE727
:102B30002D230E990B550134930736D05B46039332
:102B40001A000E9B029499464B46013C551C185D99
:102B500039004346B0472A00002CF5D1039A029B66
:102B6000944663441D00019B002B0FD05B46EB1A7B
:102B700053450BD22A005D46541C434639002020A1
:102B8000B0472200631B5345F6D32500280005B04B
:102B90003CBC90469946A246AB46F0BD930641D553
:102BA0001F2C52D95D46930712D1544538D25B464B
:102BB00053441B1B0F941C000F9B5A469946551CEF
:102BC000434639002020B0472A00A542F7D14C46A1
:102BD000002CC8D00E9B039502942A009946B3E7B7
:102BE0002B230E990B550134A6E78C4200D34EE7F8
:102BF0001F2C00D828E7202449E701235B4299468F
:102C0000CA448CE7631E002B15D1119B102B19D0E1
:102C1000022B00D147E730230E9901240B7069E79E
:102C20005D46D5E71F2C00D986E778210E9B1B193E
:102C30001970013455E71199023C1029AED01C00DF
:102C40000B0045E793060DD5002458210E9B1B1958
:102C50001970013445E7930604D558230E990124D1
:102C60000B7040E778230E9901240B703BE720247A
:102C7000F5E6C046F0B54546DE4657464E46E0B559
:102C80009BB09846259B249C1D00089009910A92B0
:102C90000C9300220023200029000B94FFF7D8FAA0
:102CA000002800D0A7E10B9A0C9B92469B468023FC
:102CB000289ADB001A400E9201D106232693802326
:102CC000289A1B011A4056465B460D92334300D1A9
:102CD00061E15B465800CC4B400D9C466044FFF7D9
:102CE000DBFACA4ACA4BFFF770FACA4ACA4BFFF767
:102CF00045FA5B46C94A1B031B0B1A4304000D002F
:102D0000C74B110050460022FFF72FFAC54AC64BA9
:102D1000FFF75BFA02000B0020002900FFF72EFAF4
:102D2000FFF7D2FA8146FFF7B7FAC04AC04B04005A
:102D30000D00FFF74AFA0022BE4BFFF71FFAFFF71C
:102D4000C3FABD4A0600BD4B20002900FFF73DFA3B
:102D5000040030000D000F96FFF79EFAB84AB94BF9
:102D6000FFF733FA02000B0020002900FFF7FDF9FE
:102D700002000B0006000F00FFF727FA32000400E4
:102D80000D003B0030003900FFF7F8F900221090E9
:102D90001191AD4B20002900FFF7F9F90022AB4B50
:102DA000FFF7ECF902000B0020002900FFF7EFF914
:102DB0000022A74BFFF7E2F902000B0020002900D8
:102DC000FFF7E5F90D008021040032003B000020F0
:102DD000C905FFF7CAF902000B0020002900FFF720
:102DE000CDF902000B0010981199FFF7D0F90022DD
:102DF0008A4BFFF7C3F9974A0F9B9446634400221E
:102E00001B05FFF7E2F905000C0002000B0050461D
:102E10005946FFF71DFA00280BD001235B429C4660
:102E2000280021000022894BE144FFF7B0F905009A
:102E30000C004B46C62663339E42B6410D9B76423C
:102E40000436002B00D0BCE0279B00279E4200D216
:102E50009F1B0223289A1A400D9203D0734273419C
:102E60005B421F404B46002B07D0504659462A0074
:102E70002300FFF78CF982468B46002200230B9833
:102E80000C99FFF7E5F9002803D080210906594481
:102E90008B4652465B4650465946FFF7ECF90028F0
:102EA00000D044E101226C4B524250465946FFF794
:102EB000CFF9002800D0D7E0289A684B0397134039
:102EC0000493269B524602935B4609990092019314
:102ED00008980A9A434600F0FFFC0200002E52D0E8
:102EE0002020289B089C034059424B415B421840DC
:102EF000531C45309A4609994346A0474B46DA177A
:102F00009D18DB0F9946731E55409B46002412AE58
:102F100002E03C00202F0DD028000A21FEF7EAFE37
:102F2000671C30313419217028000A21FEF7E2FEB7
:102F3000051EEED1052306935B46059300230493FB
:102F40000A3303934B4601970096099F089E02930C
:102F50005246434639003000FFF754FD0D9B0200F6
:102F6000002B10D00A99431A279898420BD989460A
:102F70000500434639002020541CB0474B46220030
:102F8000E31A9D42F5D810001BB03CBC9046994610
:102F9000A246AB46F0BD0D9B55465C46002B27D0A4
:102FA00000239946269B4B4500DDB1E00023269384
:102FB0008023289ADB001A43002328920026994692
:102FC00042E723002B43EDD0254A264B5046594675
:102FD000FFF744F9002800D09FE0269B002B00D18A
:102FE00032E70E9B5A1E9341269AD31A26932BE75B
:102FF0000426994628E78022120694460C9BA24696
:1030000063449B4653E6C04601FCFFFFFB799F509B
:103010001344D33FB3C8608B288AC63F0000F03FFB
:103020000000F83F61436F63A787D23F71A379091E
:103030004F930A400000E03F1655B5BBB16B02400C
:10304000EF39FAFE422EE63F00002C4000002440FB
:1030500000001840FF030000FFFFEFFFFFF7FFFF36
:103060002D431CEBE2361A3F0A9A289B14009B075B
:1030700015D1042F13D9B2464646151FED19BB468C
:10308000099F0B95330039002020089D541CA84748
:103090000B9B22009C42F5D1B0465F4656464D4BF5
:1030A00049469A464346B94622000425A346B046FF
:1030B0001F000B915346013D541C585D09993B007C
:1030C000089EB0472200002DF4D13B005C460B9ACD
:1030D000464698460D9B4F469146221D002B00D137
:1030E000FCE60A9BD31A9F4200D8F7E6B346464651
:1030F000BA46099F330039002020089D541CA84778
:103100000A9B2200E31A9A45F4D8B0465E46E5E6EB
:103110004A469B1A013B26934AE700222E4B504613
:103120005946FFF795F8002800D03BE755E70A9B82
:10313000289A9A46920717D1032F15D9B2461A003A
:103140004646DC1EE419BB46099F0B943300390048
:103150002020089C551CA0470B9B2A009D42F5D1BE
:10316000B0465F465646AA461C4B49469B464346D8
:10317000B94652460324B0461F000B915B46013C02
:10318000551C185D09993B00089EB0472A00002C89
:10319000F4D13B000B9A4F4691465246464698461C
:1031A0000D9B0332002B00D198E60A9BD31A9F4255
:1031B00000D893E6B3464646BA46099F3300390025
:1031C0002020089D541CA8470A9B2200E31A9A4518
:1031D000F4D89AE77C89001080842E417889001009
:1031E000F0B5DE4657464E464546E0B597B0050079
:1031F0000E0093461F00209A219B10001900FFF734
:103200003AF8002800D0AEE2209821990122C54B5F
:103210005242FFF71DF8002800D034E12098219990
:103220000122C14B5242FFF721F8002800D0C1E033
:10323000209821990022BD4BFFF718F8002800D0F4
:1032400008E1209821990022B94BFFF701F80028E6
:1032500000D0FFE02098219900220023FEF7F8FF1C
:10326000002800D074E200230D938023249ADB0011
:103270001A40904600D0BAE10023AE4C0693079462
:103280000EAB06249A4620982199FFF71DF8099065
:10329000FFF702F802000B0020982199FEF765FF66
:1032A000069A079BFEF791FF0A900B91FFF730F803
:1032B00081460C90FEF7ECFF02000B000A980B9978
:1032C000FEF753FF00229C4B0A900B91FEF7CEFFB6
:1032D000002800D1E5E14B46013318000C93FEF7BE
:1032E000D7FF069A079BFEF7B9FF002800D0FBE145
:1032F000002C00D09CE1099C2000FEF7CDFF0200CD
:103300000B0020982199FEF730FF00228A4B06908F
:103310000791FEF79DFF002800D1D5E14346202B01
:1033200000D112E15C1C099B0A2118009946FEF7A6
:10333000B9FC424653463031995448460A21FEF7BB
:10334000B1FCA046814600281ED05346A846BA4686
:103350004D461F00B14600E03400202C00D162E24F
:1033600028000A21FEF79EFC661C30313C192170B2
:1033700028000A21FEF796FC051EEDD13B004546CC
:103380005746B0469A464E460323249A1340012BD3
:1033900000D1B1E142462024202A00D1DCE00D9A80
:1033A000002A00D135E242465146541C40462D22A7
:1033B0000A54D1E0249B5B0700D5ADE05F4B9A46F1
:1033C000032398465B460693249B9B0718D1239BB7
:1033D000434500D84EE25B441C004346E41AB9461C
:1033E0005A4637002E002500541C4B463900202039
:1033F000B0472200AC42F7D135003E004F4606945C
:10340000B14644465646BA462F00069A013C551C22
:10341000305D53464946B8472A00002CF6D1069B3A
:103420003D0043441A00249B9B0724D55B46239907
:10343000D31A99421FD92E00D0464F460D0043465D
:1034400039002020541CB0475B462200E31A9D42FD
:10345000F5D810E0249B5A460493239B3100039334
:10346000229B28000293209B219C009301943B0007
:10347000FFF700FC0200100017B03CBC90469946D4
:10348000A246AB46F0BD249BD8469B0718D1239B90
:10349000042B15D95B461C1F239BB8469C466444ED
:1034A00037005A462E002500541C43463900202080
:1034B000B0472200AC42F7D135003E004746A04657
:1034C0001F4BB9464246370004249A462E00534605
:1034D000013C551C185D39004B46B0472A00002CB2
:1034E000F5D14246249B350004323E009B07C2D5ED
:1034F0005B462399D31A9942BDD93700C8462E009E
:103500000D00434639002020541CB0475B46220082
:10351000E31A9D42F5D8AEE70A4B9A460423984633
:1035200050E7C046FFFFEFFFFFFFEF7F65CDCD41C6
:1035300065CDCDC180842E410000E03F8C89001014
:103540007C89001084890010A2460323249A13402A
:10355000012B00D1CEE02024D846002B17D1239B8D
:103560009C4214D25B441B1BB8465A463700A14606
:103570002E001D00541C434639002020B047220075
:10358000AC42F7D135003E004746A0464C46434684
:103590004246A146B84637002E0006935346013CEA
:1035A000551C185D39004346B0472A00002CF5D160
:1035B00006994B468C4663441A00249B35003E0016
:1035C0009B0700D457E75B462399D31A994200D84A
:1035D00051E737002E000D00434639002020541CCF
:1035E000B0475B462200E31A9D42F5D843E7229B91
:1035F000092B00D85BE10EAB9A463023524613707C
:1036000001229046229B2F325C1E4146203B5046B1
:1036100005E0013C425401319C4200D1EEE0092C0E
:10362000F7D10022A84B88468246069207932AE6E5
:103630004346202B89D0631E069301230C9C4344F0
:1036400020000A219946FEF755FB53464246303189
:10365000995420000A21FEF74DFB041E00D122E1FF
:10366000A84625004C46B9465746B24612E0069B8E
:103670002800013B0A210693FEF73CFB661C303113
:103680003C19217028000A21FEF734FB051E00D1E9
:10369000CFE03400202CEAD156464546BA464F4684
:1036A00053E700220A980B99884BFEF7D1FD0028BA
:1036B00000D01DE60C9B002B02D0DB0700D417E6E0
:1036C0000C9B01330C9313E60022069807997F4B5D
:1036D000FEF7CCFD002800D020E60123A4462340BD
:1036E0009C446346099319E6099B0133099300231F
:1036F0000C93FDE520239846239B002B00D1BFE0CF
:103700000D9B002B03D1249A0C33134202D0239B30
:10371000013B2393239B434500D8B1E0424630232D
:10372000202A00D1B1E0424650462399541C8354CC
:103730008C4200D1A1E02200202CF7D12023994611
:103740005B46B8468246370006935A462E0025E768
:10375000209A219B00200021FEF707FD01232090E5
:1037600021910D9381E5249BD8469B0718D1239B7B
:10377000032B15D95B46DC1E239BB8469C4664444C
:1037800037005A462E002500541C4346390020209D
:10379000B0472200AC42F7D135003E004746A04674
:1037A0004B4BB9464246370003249A462E005346F7
:1037B000013C551C185D39004B46B0472A00002CCF
:1037C000F5D14246249B350003323E009B0700D4CE
:1037D00051E65B462399D31A994200D84BE637004D
:1037E000C8462E000D00434639002020541CB04727
:1037F0005B462200E31A9D42F5D83CE6354BE200D9
:103800009B181A685B6806920793202382469846A5
:1038100039E5249A52073BD542465146541C40464E
:103820002B220A5498E63B00454657464E469A4698
:103830008BE64546B0465646BA464F464346202B91
:1038400000D182E6069B40461A00424411005446CD
:103850003022002B29D0431C2254202B00D173E6A8
:1038600018008B42F7D1A2465A1C904651462E2290
:10387000CA5453E55B460693C2E5239B82469846AD
:1038800042460123202A00D089E52024D8467EE63E
:10389000249A4446120700D45EE620225146404650
:1038A00001340A5458E6C846C8E74346DCE7DA0064
:1038B000084B9B185C681B68069307940023984686
:1038C0000EAB229C9A46DEE465CDCD410000E03F80
:1038D0007889001090890010F0B557464E4645464D
:1038E000DE46E0B597B00792012206000F0020984F
:1038F000219998465242CF4BFEF7B8FC00284DD094
:10390000249B5B0700D541E1CB4B9A4603239B46A2
:10391000079A249B14009B0711D1239B9B450ED231
:10392000190013008C4663441D005B46ED1A541CBD
:10393000434639002020B0472200AC42F7D1B946B7
:10394000220037005D465646A246013D541C705D7C
:1039500043464946B8472200002DF6D15246249BE3
:103960003E005A444F469B0710D507992398531A97
:1039700098420BD989460500434639002020541C43
:10398000B0474B462200E31A9D42F5D8100017B00D
:103990003CBC90469946A246AB46F0BD002220981A
:1039A0002199A64BFEF762FC002800D0F3E0209896
:1039B00021990022A24BFEF74BFC002800D0EAE040
:1039C0002098219900220023FEF742FC002800D015
:1039D00092E100230D938025249BED001D4000D033
:1039E00017E10023974C089309940EAB06249B46DD
:1039F00020982199FEF768FC81460C90FEF74CFC5C
:103A000002000B0020982199FEF7AFFB089A099B52
:103A1000FEF7DBFB0A900B91FEF77AFC8246FEF77D
:103A200037FC02000B000A980B99FEF79EFB002260
:103A3000854B0A900B91FEF719FC002800D148E154
:103A400001239C46E2445046FEF722FC089A099B5B
:103A5000FEF704FC002800D09CE1002C00D006E119
:103A60000C9C2000FEF718FC02000B002098219906
:103A7000FEF77BFB0022744B08900991FEF7E8FBF0
:103A8000002800D176E1202D00D1BAE00C9B0A215C
:103A900018009946FEF706F95B46303159554846FD
:103AA0000A21FEF7FFF86C1C8146250000281AD079
:103AB0004D46BA46B1465F4600E03400202C00D1A6
:103AC00003E128000A21FEF7EDF8661C30313C19AD
:103AD000217028000A21FEF7E5F8051EEDD135001A
:103AE000BB464E4657460323249A1340012B00D170
:103AF0000EE12024202D0BD00D9A002A00D034E1B5
:103B0000249A520700D46FE12B2259466C1C4A5567
:103B1000079A1500002B12D1239B9C420FD219004B
:103B200013008C4663441B1BA1461C00551C4346D6
:103B300039002020B0472A00A542F7D14C46A246C2
:103B4000A9462A005B46013C551C185D39004346D6
:103B5000B0472A00002CF5D14B4653441A00249B51
:103B60009B0700D412E707992398531A834200D386
:103B70000CE789460500434639002020541CB04715
:103B80004B462200E31A9D42F5D8FFE62F4B9A469A
:103B900004239B46BCE6209A219B10001900FEF7E7
:103BA0006AFB00281AD1209821990122284B524201
:103BB000FEF74EFB002811D1249B079A0493239B08
:103BC00039000393229B30000293209B219C009399
:103BD00001944346FFF74EF80200D7E6249B079A6C
:103BE0000493239B39000393229B30000293209B74
:103BF000219C009301944346FFF7F2FA0200C5E6C8
:103C000083460323249A1340012B00D17FE0202414
:103C10007EE7229B092B00D8F2E00EAB9B463023B7
:103C20005A461370229B01255C1E3022203B5946C8
:103C300015E0C046FFFFEF7F8C89001065CDCD41B8
:103C400065CDCDC180842E410000E03F8489001005
:103C5000FFFFEFFF013C4A5501359C427BD0092C08
:103C6000F8D100226C4B8B4608920993C0E6202DB8
:103C7000C7D06B1C50460A219946FEF73BF85B46BD
:103C80003031595550460A21FEF734F8013C82463E
:103C9000002800D1B2E04B465546B146BA465F46D1
:103CA00011E09B4628000A215E1CBB44FEF722F867
:103CB0005B463031197028000A21FEF71BF8013CE1
:103CC000051E76D03300202BEBD1BB464E4657461F
:103CD00097E700220A980B99504BFEF7B9FA002893
:103CE00000D0BAE65346002B02D0DB0700D4B4E67E
:103CF00001239C46E244B0E6209A219B002000214B
:103D0000FEF733FA0123209021910D9363E62025DD
:103D1000239B002B46D00D9B002B03D1249A0C3300
:103D2000134202D0239B013B2393239BAB4239D9FF
:103D30003023202D3AD05946239A6C1C4B5594427F
:103D40002ED02500202CF8D12023079D8B469A46A3
:103D5000A9462A00F6E6324BE2009B181A685B6817
:103D60008B4608920993202542E62D2259466C1C69
:103D70004A55CDE6002208980999284BFEF776FAB5
:103D8000002800D07FE60123A44623409C446346DC
:103D90000C9378E64B4601330C9300239A465CE67D
:103DA0008B46239D0123202D00D0A5E62024079DCE
:103DB000C5E63500BB464E465746202D00D120E7CC
:103DC000611930222B00002C09D058466B1C42553B
:103DD000202B00D114E71D008B42F7D183462E2201
:103DE00059465D1CCA544EE6249A2C00120700D492
:103DF0008EE62022594601344A5589E64D46DCE7D5
:103E0000DA00074B00259B185C681B68089309942F
:103E10000EAB229C9B46EBE565CDCD410000E03F1B
:103E200090890010F0B5DE4657464E464546E0B54F
:103E3000A9B01E00329B90460A93BF4ABF4B8346EF
:103E40008A461A60002968D0D1460025DA463078C3
:103E500000280BD0013625281BD02A0043464946AE
:103E6000D04730786C1C25000028F3D1D3462A00B7
:103E7000CA46454501D343465A1E43465146002093
:103E8000D847280029B03CBC90469946A246AB468C
:103E9000F0BD102330789B460E3B9C460300203B30
:103EA000721CDBB20027A64C1100102B0DD89B0012
:103EB000E3589F46012316001F433078721C03000D
:103EC000203BDBB21100102BF1D90300303B092B52
:103ED00000D8AEE100239B462A2800D1CFE1002480
:103EE0002E2800D1BDE10300683BDBB2122B00D9C4
:103EF000D3E3944A9B00D3589F46042316001F43E4
:103F0000DBE7634616001F43D7E75B4616001F43F7
:103F1000D3E7082316001F43CFE78B4B9B4693E75D
:103F200080235B0070781F434E1C0300253BDBB2EF
:103F3000532B92D8854A9B00D3589F4670786C28A3
:103F400001D100F0C0FC80235B001F434E1CECE756
:103F500080239B0070781F434E1CE6E7707868282A
:103F600001D100F019FD80234E1C1F43DDE74628D8
:103F700001D100F058FC07220A9B049707339343B2
:103F8000013294469C4462460A925A460294039235
:103F90005C681B682A0000930194494643465046DA
:103FA000FFF71EF9050052E72A006C1C43464946FC
:103FB0002520D04725004AE70A9B1A1D1B680C9252
:103FC0000A931878002C00D0ABE3002801D100F050
:103FD000A2FF02211A00494201239C464346089051
:103FE0000B9307E00A98634680469B1A43445B188C
:103FF000002B03D001321378002BF3D10B9B0898D0
:1040000098460A9BD31A08938023DB003B400B930E
:1040100003D0089BA34200D9089402231F4001D17A
:1040200000F0DBFC002801D100F0BCFC0B9B002B56
:1040300001D000F062FE0A9B2A005C1B230054465C
:10404000B2464E46B946474698463B003100551C9D
:10405000A0474346585D2A000028F6D1B8464F468F
:10406000B1465646A246002F01D000F09BFC0C9BA7
:104070000A93ECE60A9B1A1D1B689346002B00D19D
:1040800042E3212217430A970F2020A90B94002214
:10409000089184460C0002E020290CD00A006146F9
:1040A0001940CFB238003730092900D80738511CE1
:1040B000A0541B09F0D10B9C0A9B01910693082385
:1040C00005930833039300230293089B2A0000936F
:1040D0000494434649465046FEF794FC5B4605006F
:1040E0000A93B4E60A9B6C1C04330B940893BB0739
:1040F00000D478E30A9B2A00187849464346D04703
:104100005B465D44012B01D800F07EFE2B00574634
:104110004D46B146464698460B9A541C330029003A
:104120002020B84722004445F7D1B046BA464E4653
:10413000A946250073E3C046253E0010E863002031
:1041400098870010DC870010E529001028880010EF
:10415000782800D1ECE2582801D100F067FC6F28E4
:1041600001D100F051FD622801D100F04FFE102373
:104170003A009A430B92692801D000F039FF7B0581
:1041800001D500F02BFD80239B001F40F73BFF3B38
:104190000C93002F01D000F0C3FC80230B9A5B002E
:1041A0001A40130094460A9A04320D92002B01D053
:1041B00000F0CAFD0B9B5B0601D400F0BCFD0A9B1E
:1041C0001B78DA1798185040DA0F0A92002B08D1A2
:1041D0000B9A1033110099430B91520501D500F051
:1041E000A2FE0B9B61279B0600D541275A4620ABB8
:1041F000FFB20E950F94B34608930A3F644610929F
:104200000C9D1E000CE03033DBB2621C33550028DD
:1042100001D100F017FC202A01D100F013FC14009A
:104220002900FDF767FDCBB20929ECD9DB19DBB218
:10423000EBE70023010001E0160001329800C018EE
:10424000400040181178030008003038303B09283E
:10425000F2D908009B46B11C002416002E2800D07D
:1042600041E680237078DB001F430300303B092BBD
:1042700015D92A2800D1DAE20E00013133E60A9975
:104280000B1D09688B46002904DA02210F435946A9
:1042900049428B467078B11C0A9316001FE6030052
:1042A00000E03100A00000194000C0184B78303801
:1042B0001A00303A4E1C0400092AF2D918000231C3
:1042C00011E6202302009A43472A02D180231B01D2
:1042D0001F4302239843452801D11E331F43072261
:1042E0000A9B07339343013294469C446246196803
:1042F0005868089109900A9203000A000B910C90EB
:1043000008980999FDF7B7FF002800D09BE2012229
:10431000E34B52420B980C99FDF7A8FF0122E14BA9
:104320005242002800D0D5E20B980C99FDF790FF7F
:10433000002800D0A2E3002200230B980C99FDF77F
:1043400087FF002801D000F055FD0B9A0C9B0892C6
:104350000D938023DB003B40179300D1062480237C
:104360000D9A1B013B400E93130008990F910B43CC
:1043700001D100F0B6FCCC4B50009C46400D60448F
:10438000FDF78AFFC94ACA4BFDF71FFFC94ACA4B4E
:10439000FDF7F4FE0D9A109011911303C74A0F997F
:1043A0001B0B1A431B921A9100221A981B99C44B9B
:1043B000FDF7DBFEC34AC44BFDF707FF02000B000D
:1043C00010981199FDF7DAFEFDF77EFF0F90FDF7CB
:1043D00063FFBE4ABE4B10901191FDF7F6FE00221E
:1043E000BC4BFDF7CBFEFDF76FFFBB4ABB4B1690F6
:1043F00010981199FDF7E9FE109011911698FDF7AC
:104400004BFFB74AB74BFDF7E0FE02000B001098D8
:104410001199FDF7AAFE02000B0010901191FDF713
:10442000D4FE149015911098119902000B00FDF71D
:10443000A5FE00221E901F9114981599AA4BFDF716
:10444000A6FE0022A94BFDF799FE02000B0014986E
:104450001599FDF79CFE0022A54BFDF78FFE02008B
:104460000B0014981599FDF792FE109A119B149069
:10447000159180210020C905FDF777FE02000B0091
:1044800014981599FDF77AFE02000B001E981F99EB
:10449000FDF77DFE0022894BFDF770FE169B1A008A
:1044A000944B9C46624413051D9300231C931C9A55
:1044B0001D9BFDF78AFE1490020016910B000898D0
:1044C0000D99FDF7C5FE00280AD00F9B1498013BFB
:1044D0000F9316990022854BFDF759FE1490169103
:1044E000C6230F9A633293429B415B42043310937D
:1044F0000E9B002B1DD0169B149A134301D100F084
:10450000C1FC7D4A7D4B08980D99FDF7A7FE002858
:1045100009D000227A4B08980D99FDF799FE0028E2
:1045200001D000F0AFFC002C03D0179B5A1E934122
:10453000E41A00230E93109B9B4502D95A46D31AC6
:104540000E9302233B40179306D0109B5A425341CF
:104550000E9A5B421A400E920F9B002B07D00898D0
:104560000D99149A169BFDF712FE08900D910022EA
:1045700000230B980C99FDF76BFE002805D08020D6
:10458000000684460D9961440D910D99089A0B001F
:104590000898FDF770FE002801D000F0E2FC01222F
:1045A000404B524208980D99FDF752FE002801D069
:1045B00000F075FC534B089A3B4004930E9B029409
:1045C00003930D9B49460092019350462A004346AF
:1045D000FFF782F90200109B002B00D170E1202030
:1045E00007403B0059424B4100275B42511C184099
:1045F0000B91434649464530D0470F9A109BD1173F
:10460000013B54180D93D20F20AB0E954C403D004A
:104610000C9208930F961F0002E03500202E0DD05B
:1046200020000A21FDF766FB6E1C30317D192970D0
:1046300020000A21FDF75EFB041EEED10523069340
:104640000D9B32000593002304930A3303930C9BC4
:1046500001920293089B0B9A0093494643465046A9
:104660000E9D0F9EFEF7CEF9179B0200002B00D186
:1046700026E1431B9B4500D822E15C465746531C6C
:104680009A46494643462020B8475246531B9C420F
:10469000F5D8BA461500FFF7DAFB0E0045E4C04630
:1046A000FFFFEF7FFFFFEFFF01FCFFFFFB799F5054
:1046B0001344D33FB3C8608B288AC63F0000F03F45
:1046C0000000F83F61436F63A787D23F71A3790968
:1046D0004F930A400000E03F1655B5BBB16B024056
:1046E000EF39FAFE422EE63F00002C400000244045
:1046F00000001840FF0300002D431CEBE2361A3F78
:1047000080842E41FFF7FFFF1022390091431132C0
:1047100011430A917A0500D4B6E420AB0021089336
:10472000CAE4002801D100F0F6FB611E1A0053E430
:1047300080231022DB003B400C920C2297430B9706
:104740003A00002B02D001239A430B9280270B9B47
:10475000BF001F40692800D11BE5642800D118E57F
:10476000002F00D07CE280230B9A5B001A401300DC
:1047700094460A9A04320D92002B00D050E30B9B12
:104780005B0600D445E30A9B1878002807D10B9AF2
:104790001023110099430B91520500D5BFE30B9BE9
:1047A00061279B0600D5412720ABFFB20A950E94E6
:1047B0000F9608930A3F65460C9C1E000AE03033B2
:1047C000DBB26A1C7355002800D111E2202A00D107
:1047D0000EE215002100FDF78DFACBB20929EED9C2
:1047E000DB19DBB2EDE75B46012B00D8A7E36B1EBC
:1047F0009B4433005E469B4601E02500013443465E
:104800002A00494620202700D047B442F5D15E4611
:1048100002350A9B3A00187849464346D047089B20
:104820000A93FFF714FB20231F43FFF7A4FB0A9A08
:10483000B0781468F11CE343DB171C40131D0A9386
:104840000236FFF750FB2C00BB0710D15B46032B51
:104850000DD9EC1E23002A005B44089343464946C9
:104860002020541CD047089B22009C42F6D10323F1
:104870000893DC4B22000B932B003D001F00089B8C
:104880000B98511C013B0C910893C05C4946434670
:10489000D047089B0C9A002BF2D13B002F00E21C62
:1048A0001D00BB070CD5531B9B4509D95F46541C03
:1048B000434649462020D0472200631B9F42F6D83A
:1048C0001500FFF7C4FAC0239B00B0781F430336DE
:1048D000FFF72BFB0B980C99FDF7BAFC002800D0D2
:1048E000CCE07B0700D46BE2BF4B089304230C930E
:1048F0000B95BB071CD10C9B9B4500D82DE35A465A
:104900005419E41A33002A004E46A94655469A46E1
:104910000D97571C434631002020A8473A00BC425F
:10492000F7D15346AA464D46B1461E000B970D9F40
:10493000330056469A460B9A0C9C0D95089B013CF9
:10494000551C185D49464346B0472A00002CF5D156
:1049500053460B99B2468C461E000C9B0D9D63443A
:104960001A00BB07ACD5531B9B45A9D933005C4645
:104970004E4657469946531C9A46310043462020DE
:10498000B8475246531B9C42F5D84B46BA46B146EF
:1049900015001E00FFF75BFAC023B0781F430336F3
:1049A000FFF7C3FA089B9B4501D8FFF760FB5A4607
:1049B0005419E41A33002A004E46574699460135E9
:1049C000434631002020B8472A00A542F7D14B4684
:1049D000BA46B1461E00FFF74AFB089A531C93459E
:1049E00000D8A8E25B465B199B1A08971F003300AA
:1049F0002A004E46A14654469A46013543463100A8
:104A00002020A0472A00BD42F7D15346A2464C467B
:104A1000B1461E005B460133089F08930A9B187835
:104A2000002801D0FFF702FBFFF721FB0C233A001F
:104A30009A4314331A430B927B0500D4C7E010232A
:104A40000C9380E6109B5E469B460E9D0F9C0B9B35
:104A5000049406935B4605930C9B03930A9B029375
:104A6000089B019200932A00434649465046FDF7B1
:104A7000C9FF0D9B05000A93FFF7E9F90B95BB07EA
:104A80001BD15B46042B00D8B0E233002C1F2A0058
:104A90004E46A94655469A465C440897571C4346DD
:104AA00031002020A8473A00A742F7D15346AA4632
:104AB0004D46B1461E000B97089F4C4B04240893AB
:104AC00033004E46B94657469A460B9A0C95089BBA
:104AD000013C551C185D31004346B8472A00002CA4
:104AE000F5D15346BA464F460B9AB1460C9D1E006F
:104AF0000432BB0700D4E3E6531B9B4500D8DFE636
:104B000033005C464E4657469946531C9A46310040
:104B100043462020B8475246531B9C42F5D834E701
:104B200007220A9B07339343013294469C44624612
:104B30005F680A921A68FB171893199318981999C5
:104B40000300534012930B007B4013939446129A38
:104B5000139B121A8B41129213936246FB0F14930C
:104B60003A4307D10B9A1023110099430B91520538
:104B700000D5E7E10B9A6123920600D54123DBB211
:104B800020AA0A3B0E950F9410960027129C139DA5
:104B900008920D930C9E0CE03032D2B2089C7B1C24
:104BA000E255020004000D000A433FD0202B3DD007
:104BB0001F003200002320002900FDF7D9F8D2B2EF
:104BC000092AE9D90D9B9C466244D2B2E6E78023CC
:104BD0009B001F40F13BFF3B0C93C1E50A230C9364
:104BE000B1E5C04678890010848900107C890010E6
:104BF0000A9D0E9C0F9E0B9B049406935B460593A7
:104C00000C9B039300232AE708230C938023DB00EB
:104C10003B40642800D090E53A000B97002B00D071
:104C200091E58027BF001740FFF7B3FA1294139560
:104C3000109E0F9C0E9D0B9A049406925A46059264
:104C40000C9A01930392149A0292089B2A000093F3
:104C5000494643465046FDF7D5FE0500FFF7F7F8F5
:104C600007220A9B07339343013294469C446246D1
:104C700003CB03000A920B4307D10B9A10331700A2
:104C80009F430B97520500D563E10B9A612392066F
:104C900000D54123DBB220AA0A3B0E950F940027D2
:104CA00008920D930C9C109615000CE03032D1B296
:104CB000E95518007A1C3100334300D185E0202AE1
:104CC00000D182E0170022000023FDF751F8D2B294
:104CD00003000E00092AE9D90D998C466244D1B22D
:104CE000E6E70E9B002B00D0C7E00D9B14911693B6
:104CF0000423109300230F931BE40A9B64195B1B8E
:104D00000A9333002A004E46B94657469A4608E0B1
:104D100043463100551CB8470A9B585D002862D0B5
:104D20002A00A242F4D153461500BA464F46B14676
:104D30001E00FFF798F90B9B1B0600D4F7E00A9BB7
:104D400000229B5EFFF73DFA0A9B1B68DA17981852
:104D50005040DA0F0E92002B06D10B9A103311003F
:104D600099430B9152051FD40B9A6123920600D5EB
:104D70004123DBB220AA0A3B08920A9309E03033B0
:104D8000DBB208997A1CCB55002810D0202A0ED00F
:104D900017000C99FCF7AEFFCBB20929EFD90A9A9C
:104DA00094466344DBB2ECE7002220AB08930B9BF4
:104DB000049406935B4605930C9B03930E9B4EE66F
:104DC0008D4B089303230C9392E50E9D0F9C109E30
:104DD0000B9B049406935B4605930C9B01920393F3
:104DE0000023029331E75346BA464F46B1461E00B0
:104DF000FFF739F98022120694460B9B08930C9B0F
:104E000063440D93FFF7A5FA250008E502230C93F0
:104E1000FCE60B9B1B0600D498E00A9B1888B4E4C0
:104E20000A9B1868002806D10B9A10231100994399
:104E30000B91520573D40B9A6123920600D541233E
:104E4000DBB220AA0A3B08920A930BE03033DBB2B4
:104E500008997A1CCB55002800D1CCE6202A00D135
:104E6000C9E617000C99FCF745FFCBB20929EDD92B
:104E70000A9A94466344DBB2EAE70D9B14911693B9
:104E800000230F930F9B9C4257DDE41A013C8023C3
:104E9000DB001F43002310930F93FFF74AFB0B9592
:104EA000BB070FD10E9B042B59D99C462A002C1FFF
:104EB0006444531C0B93494643462020D0470B9A29
:104EC0009442F6D104244D4B0B9A08930C97089BFF
:104ED000013C571C185D49464346D0473A00002C18
:104EE000F5D10B9A179B0C9F0432002B01D1FFF7D1
:104EF00072FB0E99531B8B4201D3FFF76CFB4346A9
:104F000049462020541CD0470E992200631B8B4237
:104F1000F5D3FFF760FB00230893FFF775F820AB8C
:104F20000022089367E620AB002208938FE50A9BD6
:104F30001B68FFF746F9089372E50024A7E72F00E6
:104F4000250066E420AA0023089274E60A9B1868EC
:104F50001BE420AB002208933AE70B95E8E40B959D
:104F6000B0E72C00BB0710D10E9B032B0DD99C463C
:104F70002A00EC1E64440894434649462020541CF1
:104F8000D047089B2200A342F6D1032308931C4B71
:104F900022000B932B003D001F00089B0B98511C17
:104FA000013B0C910893C05C49464346D047089B9F
:104FB0000C9A002BF2D13B002F001D00179BE21C26
:104FC000002B01D1FFF707FB0E99531B8B4201D336
:104FD000FFF701FB434649462020541CD0470E9959
:104FE0002200631B8B42F5D3FFF7F5FA0B9564E5BE
:104FF000063B17000C9309E68C8900107C89001091
:105000007889001000B585B00391012102900093CA
:10501000034813004A4202A9FEF704FF05B000BD91
:10502000E929001010B5094A84B01468002C09D091
:10503000012200910300524203A90548A047012024
:1050400004B010BD00F014FA0020F9E7E863002076
:10505000F929001000BEFDE710B5FFF7FBFFC046C1
:1050600070B5FCF731FD074C074DAC4209D2032265
:10507000231D0335ED1A9543ED1808CC9847AC4233
:10508000FBD170BD4C82001054820010030010B59B
:1050900008001B681100984710BDC046F0B5C64611
:1050A00000B5437D06000C001500002B06D10368F7
:1050B00011002000984704BC9046F0BD002AFADD9C
:1050C0000A78037D00200A2A2CD00121012D1BD053
:1050D000184B984602E03900BD4215D04B1EE25CE9
:1050E000635C4F1C0A2BF6D10D2AF4D0336888423A
:1050F00003DA091A20189847336802214046984776
:1051000038003900BD42E9D1854203DD291A3368F0
:10511000201898476419013C23780D3B5A425341AB
:105120003375C8E7002BD0D1024802213368984775
:105130000120CAE7E0890010F0B54F46D646464642
:10514000314BC0B51C680700002C1BD02F4B984674
:105150002F4B9A4602E02469002C13D02368002BC1
:10516000F9D042461268002A01D0A242F3D1627DF2
:105170003D1D3E68002A0CD1310028009847246963
:10518000002CEBD100233B601CBC90469946A24604
:10519000F0BD002EDFDD3979227D00200A292BD0D9
:1051A0000121012E03D119E049464E4516D04B1E70
:1051B000EA5C4B1C99466B5C0A2BF5D10D2AF3D0A7
:1051C0002368814203DD091A2818984723680221C1
:1051D00050469847484649464E45E8D1864203DD49
:1051E000311A236828189847AD19013D2B780D3BDB
:1051F0005A4253412375AEE7002AD1D104480839F9
:1052000098470120CCE7C046DC4F0020E44F002047
:10521000E08900100B6870B505000C00802B04D0ED
:105220005A1C2260E418257170BD0800FFF784FF46
:105230002368F5E7F0B5DE4657464E464546E0B5ED
:1052400085B015001C0007000E00FCF7FDF90023D7
:10525000304A12184B41002B02DA01222E4B5242E7
:105260002E4908008B4602F0ABFF0190731C03D15E
:10527000380002F009FE0600002C35D1284B984674
:10528000284B1C68002C21D0002D30D0264B99468D
:1052900002ABDD1D0A239A460CE0320039002000E3
:1052A000C04753460122290020002B70C0472469C3
:1052B000002C0BD02368002BF9D04B461B68002B29
:1052C000EBD0A342E9D02469002CF3D1019B002B41
:1052D00002D0584602F034FF300005B03CBC904686
:1052E0009946A246AB46F0BD104B9846C8E70E4D16
:1052F00006E0320039002000C0472469002CE5D0C8
:105300002368002BF9D02B68002BF2D0A342F4D1F4
:10531000EFE7C04640420F00FFFFFF7FF417002079
:105320008D500010DC4F0020E44F00209D500010F5
:105330000A4A1368002B05D10CE01A001B691032D1
:10534000002B07D09842F8D1002902D103691360DD
:10535000016170470029FCD01060FAE7DC4F0020A3
:1053600010B500F011FB10BDF0B5184B85B01A68F0
:105370005D68174F174E01923C68002C03D113E073
:105380002469002C10D03368002B01D0A342F7D140
:10539000A368002BF4D0012103A898470028EFDD73
:1053A00002AB187905B0F0BD0B4B5A6A954208D88C
:1053B0009B6A01998B4202D302204042F2E7954258
:1053C000FAD101200021FCF74BF9D5E7C88600107F
:1053D000DC4F0020E44F002000400540F0B5CE46F1
:1053E000474680B583B06B46DD1D06002870FCF78C
:1053F0002BF90023194A12184B41002B02DA012223
:10540000174B524217490800884602F0D9FE164B46
:1054100081461C68002C14D0144F07E0012229009B
:105420002000FFF73BFE2469002C0AD02368002BE4
:10543000F9D03B68002BF1D0A342EFD02469002CB7
:10544000F4D14B46002B02D0404602F079FE3000EA
:1054500003B00CBC90469946F0BDC04640420F00D8
:10546000FFFFFF7FF4170020DC4F0020E44F0020F7
:1054700070B5040002F008FD0123010005000122BF
:105480002000FFF7D7FE084B1C68002C06D063688D
:10549000002B05D098472469002CF8D1280070BD56
:1054A0002469002CF3D1F9E7DC4F0020F0B5A3B05C
:1054B00004000D00FCF7C8F800231A4A12184B41EB
:1054C000002B02DA0122184B5242184E300002F033
:1054D00077FE00230700019322002B0001A9144846
:1054E000FFF790FD019B0500002B16D1114B1C68A6
:1054F000002C06D06368002B0BD098472469002C41
:10550000F8D1002F02D0300002F01AFE280023B09C
:10551000F0BD2469002CEDD1F3E701A8FFF70CFEE4
:10552000E4E7C04640420F00FFFFFF7FF417002072
:1055300015520010DC4F00200FB400B583B004A951
:1055400001C90191FFF7B2FF03B008BC04B01847CE
:105550007047C0460022014B1A7070473A64002021
:10556000012070474B790020FF2B00D070478B79CA
:10557000002BFBD1CB79012BF8D1082AF6D98A78F8
:10558000014B09301A70F1E73A64002010B5012090
:10559000012900D010BD13495379107909781B02F5
:1055A000034300209942F5D15378012B08D0022BF8
:1055B000F0D1002064220021FCF7D4F90120E9E7B2
:1055C000D178937809021943CB0507D54A0A90B2DE
:1055D00001231A407E331940FCF746FA01204A0A9B
:1055E0004042F5E73A64002000487047048A001002
:1055F00010B501231400012901D0180010BD527804
:105600000023012AF9D16279217912020A43072A7B
:10561000F3D1A633024A210001F080FA0300ECE73F
:10562000288A00100123037000487047E4890010A5
:105630004A780B7812021A438B7810B51B041A4370
:10564000CB781B0613439622D200934200D010BDA4
:105650000022012011004042FCF706FA024B1860BC
:10566000024B19607047C0467C1F0020801F00203D
:1056700010B5024B1878FBF7E3F910BD3B6400202E
:10568000154B70B51A68002A22D0EFF3108172B65C
:1056900010680028FCD0BFF35F8F00220F485960CC
:1056A00002701B68BFF35F8F1A6081F310880024BB
:1056B00000250B4E3078FBF7B7F9002804D1002401
:1056C00000252900200070BD3078FBF7B9F9F8E714
:1056D000FA240025A400ECE7F46300203C640020D9
:1056E0003B64002070B5050000200E0001F008FBAF
:1056F000002834D0002001F019FB00282FD0FBF740
:10570000A3FF0023174A12184B41002B02DA012293
:10571000154B5242154C200002F052FD00281ED0BD
:10572000002001F0EDFA00280BD1012000214042B9
:10573000032500F009FD6D42200002F001FD280064
:1057400070BD002001F0F2FA0028EED029003200EE
:10575000002001F0F7FA051EEED1033DECE703252A
:105760006D42ECE740420F00FFFFFF7F1C6400200A
:1057700010B5FBF769FF00230D4A12184B41002BAF
:1057800002DA01220B4B52420B4C200002F018FDB2
:1057900000280CD001200021404200F0D5FC002060
:1057A00001F066FB0028F5D1200002F0C9FC10BD15
:1057B00040420F00FFFFFF7F1C640020F0B5D6467B
:1057C0004F464646C0B50D000700FBF73DFF0023DE
:1057D000364A12184B41002B02DA0122344B524256
:1057E00034490800884602F0EBFC002804D11CBCB8
:1057F00090469946A246F0BD002001F081FA0028AB
:1058000037D00024002D39DD2B4B99469A4615E000
:10581000002848D101200021404200F095FC0020E2
:1058200001F026FB002001F06BFA002826D00020B2
:1058300001F05AFB002825D0A5421FDD00202E1BB9
:1058400001F052FB8642E3DC32003919002001F0FE
:10585000C3FA060001200021404200F075FC002040
:1058600001F006FBFBF7F0FE4B46A41918605960E7
:10587000E2E700200021104B18605960404602F01A
:105880005FFCB4E7FBF7E0FE00230E0051460B4A35
:1058900084460868496812184B419E42EED8CBD125
:1058A0009445C9D9EAE70600CEE7C04640420F005A
:1058B000FFFFFF7F1C6400208019002020A107004B
:1058C00030B52A4C85B00021200002F061FC002890
:1058D0001CD1274B1A68002A16D0EFF3108172B63C
:1058E00010680028FCD0BFF35F8F01242148596065
:1058F00002781B68D2B20470BFF35F8F002018607B
:1059000081F31088002A17D005B030BD0120002196
:10591000404200F019FC002001F008FA05002000C8
:1059200002F00EFC002DEFD0134B1B68002BEBD0C8
:10593000124A10689847E7E7FBF788FC0400FBF77A
:1059400083FEFA220023920012184B41002B02DA48
:1059500001220B4B52420121029100210191094980
:1059600020000091FBF776FCCEE7C0461C640020C7
:10597000F46300203C6400207C1F0020801F002076
:10598000FFFFFF7F81560010D02310B51B0684B0A7
:105990001C68FBF75BFCFBF715FDA04202D0002062
:1059A00004B010BD284B002100201B7801F00EFE32
:1059B00026480368002B44D00120FBF7C3F9FF23DE
:1059C000234C244920701840FBF754F8207801211B
:1059D000FBF718F80520FBF73BF8002811D0012051
:1059E000FAF7E0FF01001C48FBF71AFA00221B49F6
:1059F0000520FBF769F81A480121FFF799FC0120FF
:105A0000CEE7082200211448FCF7E0FFFBF71EFC5C
:105A10000400FBF719FEFA220023920012184B41F2
:105A2000002B02DA01220F4B524201210291002188
:105A300001910D4920000091FBF70CFC0028DADAF7
:105A4000ADE7FBF7CFF9B7E70C8E00101C64002020
:105A50003B640020C1580010F46300207156001010
:105A600020120020FFFFFF7F8156001010B500209C
:105A700001F046F910BDC04600487047708B001019
:105A8000004870471C8B001070B50400164803785E
:105A9000002B20D0002C06D1C1241448144BA400A4
:105AA0004380048070BD052C1CD8124B0F48A40005
:105AB000E558811C002304E001330A800231132BD6
:105AC0000DD0EA5CDCB2002AF6D1C02301346400B8
:105AD0009B001C43E5E7112100F016F8DAE7CA2421
